:400000000040002011000000810700008107000080B500AF00F0BEFB80B500AF234B12221A6001F06FFB224B180001F015FE012001F078FB302001F035F91E4B1E4A1A608F
:400040001E4B8022D2051A601D4B1D4A126802210A431A601B4B1C4A1A601C4B00221A601B4B1B4A126808218A431A60FA23DB00180001F065F9174B180001F045FA164B89
:40008000802212061A60154B8022D2021A60144B1900082001F0CAF9082001F0EDF9074B8022D2051A60C046BD4680BD30001040001BB70004010B40060000800C020B405D
:4000C00078002E407C002E407171000064F02E406CF02E40DC05000008010B4000010B40E119000080B582B000AF72B6304B00221A60FB1D00221A7022E0FB1D1A7813006F
:400100005B009B185B002B4A9B183B603B681A78597809020A43997809040A43DB781B06134318003B681A795B791B0213439BB2190000F001FBFB1D1A78FB1D01321A709A
:40014000FB1D1B78012BD8D91B4BEE2212061A601A4B992212041A60194B992212041A60184B992212041A60174A174B1B78DBB206210B43DBB21370144B01221A60144B1F
:40018000144A1A60144B40221A60144B802252031A60134B40221A60124B802252031A60FFF73AFF00F0D8FAC046BD4602B080BD6CF02E40C44001000000024000500F40BB
:4001C00020500F4030500F4000700F4000000440080004400400D8400002044008020440000304400803044010B5064C2378002B07D1054B002B02D0044800E000BF0123CB
:40020000237010BD4010002000000000C0400100084B10B5002B03D00749084800E000BF07480368002B00D110BD064B002BFBD09847F9E70000000044100020C04001009A
:40024000A80B00200000000090B585B000AF00F03DF8002001F0A4FCFA235B00180001F02DF9012001F09CFC02F016F93B1D180005231A00002102F0CFF83B1D180000F06E
:40028000CDF90E23FC183B1D180000F027FA030023800C23FC183B1D180000F037FA030023800C23FB181A880E23FB1800215B5E1100180000F062F8012001F071FC00F0AE
:4002C00023F8002001F06CFCCEE7C04690B583B000AF62B6BC1D0B4B180000F007FB03002380BB1D1B88002B02D0002001F0DAF8032001F06FF801F0B7F9C046BD4603B05E
:4003000090BDC0465103000090B583B000AF032002F0BAF8FC1D01F0A8FC03002370BC1D04F00FF903002370BB1D1B78042B03D0BB1D1B78062B01D101F014F9FB1D1B78F5
:40034000180001F096FCC046BD4603B090BDC04680B582B000AF786039607B68262B08D0282B02D0012B00D004E0012000F056FB00E0C046C046BD4602B080BD90B583B083
:4003800000AF0200BB1D1A803B1D0A1C1A8004F0D8F80300022B62D1334B9C68BB1D00229B5E6421180001F007FF03001BB2DBB23033DBB2E3722C4B9C68BB1D00229B5EC2
:4003C0000A21180001F0F8FE03001BB20A21180001F0D8FF0B001BB2DBB23033DBB22373214B9C68BB1D00229B5E0A21180001F0C9FF0B001BB2DBB23033DBB2A3731A4BDE
:400400009C683B1D1B886421180001F04BFE03009BB20A21180001F0CBFE0B009BB2DBB23033DBB26374104B9C683B1D1B880A21180001F037FE03009BB20A21180001F0A6
:40044000B7FE0B009BB2DBB23033DBB2A374064B9A68054BDB681900100004F025F8C046BD4603B090BDC046DC0B002080B500AF01F0FBFB03001A000A4B1A70002001F0CD
:40048000B7FB142001F01AF8012001F0B1FB1E2001F03AF8034B1B78180001F0EAFBC046BD4680BD5C10002080B582B000AF01F0DCFB03001A00204B1A70FB1D64221A707B
:4004C00007E0FB1D1A78FB1D013A1A70012001F01BF801F0B3FB031E03D1FB1D1B78002BEFD1FB1D1B78002B01D101231FE0FB1D64221A7007E0FB1D1A78FB1D013A1A70DE
:40050000012001F001F801F099FB031E03D0FB1D1B78002BEFD1084B1B78180001F0A9FBFB1D1B78002B01D1012300E000231800BD4602B080BDC0465D10002090B583B02A
:4005400000AFBB1D64221A707C1D01F08EFB0300237007E0BB1D1A78BB1D013A1A70012000F0D2FF01F06AFB031E03D1BB1D1B78002BEFD1BB1D64221A70FB1D00221A701E
:400580001E2000F0C1FF01F059FB031E0BD0FB1D01221A7007E0BB1D1A78BB1D013A1A70012000F0B1FF01F049FB031E03D0BB1D1B78002BEFD17B1D1B78180001F059FB91
:4005C000FB1D1B781800BD4603B090BD80B582B000AFFB1D00221A70BB1D00221A7012E0FA1DFB1D1B78DB181370FFF7A7FF03001900FB1DFA1D12780A431A70BB1D1A78FB
:40060000BB1D01321A70BB1D1B78072BE8D9FB1D1B781800BD4602B080BDC04690B585B000AF7860FFF722FFFFF73EFF031E4FD10F23FB1800221A7010E00F23FB181C78C6
:40064000FFF7C4FF03001A000823FB181A550F23FB181A780F23FB1801321A700F23FB181B78042BE9D90823FB181A780823FB185B78D318DAB20823FB189B78D318DAB235
:400680000823FB18DB78D318DAB20823FB181B799A421DD10E23FB1800221A7011E00E23FB181B780822BA18D25C7B681A707B6801337B600E23FB181A780E23FB18013208
:4006C0001A700E23FB181B78032BE8D9002300E001231800BD4605B090BDC04680B582B000AF78607B6803331B789BB21A1C9200D318DB189AB27B6802331B789BB2D318A4
:400700009BB21BB21800BD4602B080BD80B582B000AF78607B6801331B789BB21A1C9200D318DB189AB27B681B789BB2D3189BB21800BD4602B080BD80B582B000AF7860CB
:4007400039603A687B680021180001F065FEC046BD4602B080BDC04680B500AF054B03221A60054B03221A60044B00221A60C046BD4680BD3000304030003140000E3F400F
:4007800080B500AF01F004FE03001B680C2B00D1FEE7FEE780B586B000AF224B7B61224B3B61204B7B6135E03B691B68FB603B695B68BB603B699B683B6000237B600CE012
:4007C000FB681A68BB681A60BB680433BB60FB680433FB607B6804337B607A683B689A42EED13B69DB683B6000237B6008E0BB6800221A60BB680433BB607B6804337B6067
:400800007A683B689A42F2D13B6910333B617B69013B7B617B69002BC6D101F0BFFDFFF713FDFEE701000000A842010080B582B000AF154B144A126801218A431A60002311
:400840007B600FE07B68032B04D8104B7A689200D35800E00E4B0F4A796889008B507B6801337B607B682F2BECD9FFF73BFC0A4B00221A60044B044A126801210A431A60DE
:40088000C046BD4602B080BD00001040000000008107000000000020C000002080B500AF094B00221A70094B00221A70084B00221A7000F013F8074B00221A70064B002219
:4008C0001A70C046BD4680BD1F220020182200201E220020082200201022002080B500AF00F098F9C046BD4680BDC046B0B594B004AF78603E23FB1800221A802823FA18FF
:400900003D4B1000190014231A0001F07CFD3B4B1B78002B04D1FFF7C1FF384B01221A707B68002B5CD0364B7A681A603E23FB181B88002B29D11023FB181C22BA185A60E9
:400940001023FB182022BA181A601023FB1800221A812023FB181B221A802023FB181B225A802023FB1804221A711C23FB1800221A703E23FC180E23FA181023FB181100F2
:40098000180001F065FE030023803E23FB181B88002B29D13E23FC182823FD18AE231A0118491948194B0293194B0193052300932B0001F0A3FD030023803E23FB181B8841
:4009C000002B11D1134B01221A703E23FC18124B0F22122118000EF093FF0300238003E03E23FB1801221A803E23FB181B881800BD4610B0B0BDC046D04001006010002041
:400A00000C220020C8000020290E000079020000804B010016220020EC40010090B585B000AF0200FB1D1A70FB1D1B78022B04D90E23FB1801221A804AE0294B1B78042B9A
:400A400041D1284B1B78DBB21A00042313403AD1FB1D1B78002B0BD1234B1E221A82224B5B6820221A80204B5B6830225A8010E0FB1D1B78012B0CD11B4B00221A821A4BA3
:400A80005B68FA2252011A80174B5B68FF2252015A80164BFA1D12781A700E23FC18124B18000CF071FB030023800E23FB181B88002B0DD10B4B1B78DBB204221343DAB235
:400AC000084B1A7004E00E23FB180422FF321A800E23FB181B881800BD4605B090BDC046162200201F220020DC0B00201E22002080B584B000AF78600A00FB1C1A70002318
:400B0000BB60BB68002B20D07B689A79BB681A700F23FB1800221A7012E00F23FB181B780133BA68D3180F22BA18127879688A5C1A700F23FB181A780F23FB1801321A7006
:400B40000F23FB181B78052BE7D9C046BD4604B080BDC04680B582B000AF78607B681B789AB27B6801331B789BB21B029BB213439BB21800BD4602B080BDC04690B585B06F
:400B800000AF78600F23FB1800221A707B689B890F22934232D17B68181D7A680F23FC18402300210EF0C4FE030023700F23FB181B78002B1AD17B685B681800FFF7CAFF28
:400BC00003001A00022313409BB2002B07D00F4B1B687968822252001000984706E00B4B1B6879680622FF3210009847084B1B78DBB201229343DAB2054B1A700F23FB186F
:400C00001B781800BD4605B090BDC0460C2200201F22002080B500AFC046BD4680BDC04680B584B000AF0F23FB1800221A7012223B001A813B000F22BA181A603B000122F6
:400C40009A8038000023002200210EF071FEC046BD4604B080BDC04680B584B000AF78601E4B1B68002B34D012227B689B899A422FD17B681B89012B2BD17B685B681B7845
:400C8000022B26D87B68181D7A68402300210EF04FFE031E1DD10823FB187A6812881A800823FB1800229A707B681A1D0823FB185A600A4B1B680822B918BE22FF3210006D
:400CC0009847074B1B78DBB201229343DAB2044B1A70C046BD4604B080BDC046881000201F22002090B585B000AF78600F23FC187B681800FFF742FF03002370154B1B782A
:400D0000DBB21A00012313401FD10F23FB181B78002B16D00823FB1812229A707B689A890823FB181A800823FB180F22BA181278DA700823FA187B68110018680DF078FB2C
:400D400003E07B6818680DF0EBFBC046BD4605B090BDC0461F22002080B582B000AF7860C046BD4602B080BD80B500AF054B00225A70044B00221A70FFF752FFC046BD4687
:400D800080BDC0461C22002080B582B000AF7860C046BD4602B080BD80B500AFC046BD4680BDC04680B584B000AF78600E23FB1800221A707B689B79002B1CD10F23FB1848
:400DC00000221A7012E00F23FB181B787A68D35C002B04D00E23FB1801221A700BE00F23FB181A780F23FB1801321A700F23FB181B78052BE7D90E23FB181B781800BD46FE
:400E000004B080BD80B582B000AF0200BB1D1A80C046BD4602B080BD80B582B000AF7860C046BD4602B080BD80B588B000AF02003960FB1D1A70CC4B1B78DBB20122134350
:400E4000DAB2C94B1A70FB1D1B78412B00D160E123DC212B00D1C6E00DDC022B00D198E002DC012B3BD0D9E1052B00D196E0062B00D198E0D2E1272B00D1EEE006DC242B69
:400E800000D1E0E0262B00D1F3E0C7E1282B00D1EBE02A2B00D1DBE0C0E14F2B00D1B0E10BDC432B00D154E100DA4FE14C2B00D189E14E2B00D18BE1B0E1572B00D1A2E183
:400EC00006DC502B00D1A0E1542B00D18CE1A5E1712B00D117E1FA2B00D18AE19EE11423FB1807221A701423FB1800225A701423FB18180003F086FB1423FB1807221A70B5
:400F00001423FB1801225A701423FB18180003F079FB0B23002B01D001F0B2FA934B1B681800FFF73FFF031E11D0904B1B68180001F0B6FA8D4B1B6800211800FFF7D8FDC5
:400F40008A4B1B6801211800FFF7D2FD0DE0884B180001F0A5FA864B00211800FFF7C8FD834B01211800FFF7C3FD00200BF0B0FF1023FB183F221A701023FB1800225A7002
:400F80001023FB1818000BF0C1FF7A4B04221A7044E13B681800FFF7F7FE3FE13B681A78754B1A703AE13B68BB61BB691B78002B00D02CE1BB695B78002B0BD16F4B0022C6
:400FC000DA806E4B00229A806C4B6D4A1A60BB696A4A5A60644B1B78DBB201229343DAB2614B1A7013E1604B1B78DBB21A002023134000D00DE1634B1B78102B02D1614B76
:401000000522DA70604B1B785E4A110018000CF07DF803001A000E23FB181A800E23FB181B88002B06D0594B1B680E22BA181100362098474C4B1B78DBB201221343DAB2B1
:40104000494B1A70E5E03B685A78514B1A70E5E03B681800FFF7E0FEE0E03B681800FFF7DBFE444B02221A70D8E0424B04221A70D4E0404B1B78022B00D1CCE03A4B1B788E
:40108000DBB21A000123134000D1C4E0364B1B78DBB21A00042313400BD0364B03221A70314B1B78DBB204229343DAB22E4B1A70B1E02D4B1B78DBB21A00082313400BD09A
:4010C0002C4B04221A70284B1B78DBB208229343DAB2254B1A709EE0264B1B78032B00D099E0244B04221A702A4B1B78002B00D091E00120FFF792FC031E00D08BE01D4BBB
:4011000003221A7087E03B681B881800FFF77AFE84E01D4A3B681000190002231A0001F072F9154B00221A70174B1B783D33FF335A00194BD3180133184A1000190002236B
:401140001A0001F060F9FFF727FE67E0FFF70CFE64E03B685B88162B22D81E23FB183A6852881A8020E0C0461F220020F80B0020F00B002016220020182200208C10002027
:40118000A80B00205C0C00201C2200200C220020102200201E220020804B0100142200201E23FB1817221A801E23FB1819883B681A8800231204120C1B0C1B0413431800E8
:4011C0000DF040F92AE03B681800FFF78BFD25E01F4B1B78DBB21A00012313401DD03B681800FFF739FD18E03B681800FFF7B4FD14E0184B1B7801221343DAB2154B1A704F
:401200000CE0C0460AE0C04608E0C04606E0C04604E0C04602E0C04600E0C0460C4B1B78DBB21A00112313400ED0094B1B78DBB201229343DAB2064B1A70074B1B68FA1D84
:401240001278396810009847C046BD4608B080BD1F220020082200200C22002090B585B000AF78600F23FC1800F0FFFC030023700A4B7A68D104E02292031140074A1268D6
:40128000074802400A431A600F23FB181B78180000F0EFFCC046BD4605B090BD00010B40FFFFC7FF90B58BB000AF78602723FC1800F0DBFC03002370194B1A680C23FB1806
:4012C0001A60184B1A680C23FB185A607B68033B154AD35C1A000C23FB189A60134B1A680C23FB18DA601C23FB18114A1A600C23FA181C23FB185A600E4B1C22BA181A60DB
:401300000D4B0E4A1A600B4B1B682723FB181B78180000F0AEFCC046BD460BB090BDC04608010B4000010B405442010030001040B6EA000008001040040010401700008057
:4013400080B584B000AF78600023FB60154B154A126801210A431A60134B144A1A60144B134A1268802109020A431A607B68002B12D01023FB600CE0012000F0C5F800F0D6
:4013800019F8031E02D00023FB6005E07B68013B7B607B68002BEFD1FB681800BD4604B080BDC04660F02E4078002E400220000010002E4080B582B000AF054B1B68012239
:4013C00013407B607B681800BD4602B080BDC0460C002E4090B585B000AF7860114B1B6807221340022B16D00F23FC1800F03DFC030023700C4B7A68032111400A4A126862
:40140000032082430A431A600F23FB181B78180000F02FFC02E0002000F044F8C046BD4605B090BD00010B4064F02E4080B584B000AF02003960FB1D1A7080239B05FB60B8
:40144000FB1D1B781F2B02D9002000F02BF8FB1D1B7810339B00FA68D3181B68BB60FB1D1B7810339B00FA68D3183A681A60BB681800BD4604B080BD80B582B000AF0200BC
:40148000FB1D1A70064BFA1D12781F210A40012191400A001A60C046BD4602B080BDC04600E100E080B582B000AF0200FB1D1A7001BEC046BD4602B080BDC04680B582B0FA
:4014C00000AF786009E00D4B1B68180000F0C4FB7B680B4A944663447B607A6880231B029A42F0D8074B1B687A685343180000F0B3FBC046BD4602B080BDC046700C002063
:401500000080FFFF680C002080B582B000AF0200BB1D1A80BB1D1B88044A12785343180000F09AFBC046BD4602B080BD6C0C002090B583B000AFFC1D00F097FB03002370A1
:40154000074B074A126804218A431A6030BFFB1D1B78180000F08DFBC046BD4603B090BD10ED00E090B583B000AFFC1D00F07DFB03002370114B114A1268520052081A603D
:401580000F4B104A128892B21A600F4B0E4A126804210A431A600D4B1B683B600220FFF75DFE30BF094B3A681A60FB1D1B78180000F05FFBC046BD4603B090BD00000B405E
:4015C0000C000B4052F1FF0F10ED00E000010B4080B500AF0F4B0F4A126801218A431A600C4B0C4A126802218A431A600A4B0A4A126830218A4310210A431A60064B064A35
:40160000126807218A4301210A431A60C046BD4680BDC04600F02E4000FF2E4080B500AF0F4B0F4A126802218A431A600D4B0D4A126807218A4302210A431A60094B094A11
:40164000126830218A4320210A431A60044B044A126801210A431A60C046BD4680BDC04600F02E4000FF2E4090B583B000AF00F093F8031E22D100F027F8031E1ED000F0EF
:4016800031F8031E14D1FC1D00F0EFFA0300237000F01CFA0B4B0B4A1268520052081A6000F060FAFB1D1B78180000F0E2FA05E0044B044A1268520052081A60C046BD461E
:4016C00003B090BD04010B4080B500AF044B1B68002B01DA012300E000231800BD4680BD04010B4080B582B000AF054B1B689B0F9B077B607B681800BD4602B080BDC0460C
:401700000C020B4080B500AFFFF762FF044B044A1268802109060A431A60C046BD4680BD00F02E4080B584B000AF78600C4B1B6801221340FB607B68002B02D0012B03D069
:4017400005E0FFF745FF06E0FFF768FF03E00020FFF7A8FEC046FB681800BD4604B080BD00F02E4090B583B000AFFC1D00F07DFA03002370074B074A1268C02109020A4302
:401780001A60FB1D1B78180000F073FAC046BD4603B090BD00010B4080B500AF054B1A68C0231B02134001D0012300E000231800BD4680BD00010B4090B583B000AFFC1D55
:4017C00000F053FA030023700D4B0D4A12680D490A408021C9010A431A60094B084A126808490A40802109020A431A60FB1D1B78180000F03EFAC046BD4603B090BDC046F3
:4018000000010B40FF3FFFFF80B582B000AF78607B68022B02D90020FFF744FE064B1A687B68DB000133DA401300012213401800BD4602B080BDC04610020B4080B584B0B1
:4018400000AF786039607B68022B02D90020FFF729FE7B681800FFF7D7FF031E16D10D4B1B687A68D200032191400A00D2431340FB603B6803221A407B68DB009A40130033
:40188000FA681343FB60034BFA681A60C046BD4604B080BD0C020B4080B582B000AF7860054B1A687B68DB00DA401300032213401800BD4602B080BD0C020B4080B582B0AB
:4018C00000AF7860144B144A11687A680A431A607B680122134005D0C0460020FFF794FF031EFAD07A6880235B00134005D0C0460120FFF789FF031EFAD07A6880235B0240
:40190000134005D0C0460220FFF77EFF031EFAD0C046BD4602B080BD10020B4080B584B000AF78600023FB607B68012B09D002D3022B0BD00EE00C4B1B681B041B0CFB6008
:401940000CE0094B1B681B0CFB6007E0074B1B68FB6003E00020FFF7A5FDC046FB681800BD4604B080BDC04600020B4004020B4090B585B000AF78600B23FC1800F075F9B6
:4019800003002370FFF708FF031E04D00123FB60FFF712FF01E00023FB607B680D4A13407B600D4B0C4A12680C4911407A680A431A60094B1B68FB68012B01D1FFF7D2FEDD
:4019C0000B23FB181B78180000F053F9C046BD4605B090BD0404040010020B40FBFBFBFF80B500AF344B1B68042213401FD0334B1B680422134017D0314B1B680422134034
:401A0000DA432E4B1B681A402C4B1A602C4B1B68042293431A002A4B1A602A4B1B68002B02D0284B1B6898470420FFF7A1FF224B1A688023DB00134022D0204B1A6880237D
:401A4000DB00134017D01E4B1A688023DB001340DA431A4B1B681A40184B1A60184B1B68194A1A40164B1A60164B5B68002B02D0144B5B6898478023DB001800FFF778FFB6
:401A80000D4B1A688023DB02134011D00B4B1A688023DB02134006D00A4B9B68002B02D0084B9B6898478023DB021800FFF760FFC046BD4680BDC04610020B407C0C00204F
:401AC0009C100020A0100020FFFBFFFF80B582B000AF0020FFF798FE031E03D01E4B00221A6024E00120FFF78FFE031E03D01A4B01221A601BE00220FFF786FE031E03D06E
:401B0000154B02221A6012E0144B01221A60124B00221A600020FFF7BFFE0200104B1A6000210020FFF78AFE0120FFF7C7FE0A4B1B681800FFF7F2FE03007B60C046064B70
:401B40001B681800FFF7EAFE02007B689A42F6D0C046BD4602B080BDB8100020941000209810002080B500AF0A4B1B68002B0ED0094B094A126801218A431A60074B1B68D5
:401B800019000020FFF75AFE024B00221A60C046BD4680BD9410002010020B409810002080B584B000AF0200FB1D1A700F4B1B68DAB20F23FB1840218A431A70FB1D1B78B9
:401BC0009B01DBB240221340D9B20F23FB180F22BA1812780A431A70044B0F22BA1812781A60C046BD4604B080BDC0460002044080B584B000AF0200FB1D1A700E4B1B689F
:401C0000DAB20F23FB1801218A431A70FB1D1B7801221340D9B20F23FB180F22BA1812780A431A70044B0F22BA1812781A60C046BD4604B080BDC0460000044080B500AF87
:401C4000044B1B68DBB201221340DBB21800BD4680BDC046040004400230800803D00138FDD1C046C046C0467047EFF3108072B6704780F31088704780B582B000AF7860FE
:401C80000A00BB1C1A80BB1C1A887B681A60C046BD4602B080BDC04680B582B000AF78600A00BB1C1A80BB1C1A887B681A60C046BD4602B080BDC04680B584B000AF494BEC
:401CC0001B78DBB21B02484A1278D2B21343FB60464B1B78DBB21B02454A1278D2B21343BB60BB68434A934207D1FB68072B04D1414BBB600423FB6009E0BA68D4231B016C
:401D00009A4204D1FB68042B01D13B4BBB603B4BBA681A603A4BFA681A603A4B1B78DBB21B02394A1278D2B21343FB60FA6880239B019A4202D0FB68002B01D1334BFB60DE
:401D4000334BFA681A60334B1B78DBB21B02324A1278D2B21343FB60FB68304A934206D0FB682F4A934202D0FB68052B01D12D4BFB602D4BFA681A602C4B1B681B097B6083
:401D80002B4B1B68AA2B29D17B68012B26D9214B1B78DBB20E2B21D1264B1B78DBB29BB21B0299B2244B1B78DBB29AB2BB1C0A431A80224BBA1C12881A60214B1B78DBB2D4
:401DC0009BB21B0299B21F4B1B78DBB29AB23B000A431A801C4B3A0012881A60C046BD4604B080BDD9F0FF0FD8F0FF0FDFF0FF0FDEF0FF0F580B0000580D00006C002E407F
:401E000074002E40DBF0FF0FDAF0FF0F0220000078002E40DDF0FF0FDCF0FF0F0F0F000005050000050F000080002E40EC0F00F0E00F00F06DF2FF0F6CF2FF0F84002E4093
:401E40006FF2FF0F6EF2FF0F94002E4080B582B000AF0200BB1D1A80BB1D1B881800FFF753FBC046BD4602B080BDC04680B582B000AF78607B681800FFF720FBC046BD4621
:401E800002B080BD80B500AF00F0ECF8C046BD4680BDC04680B500AF00F0F0F8C046BD4680BDC04680B500AF00F0E8F8044B180000F0A2F8032000F0ADF8C046BD4680BD84
:401EC0009520000080B500AF034B180000F080F8C046BD4680BDC0469520000080B500AF0223FF331800BD4680BDC04680B582B000AF78602B231800BD4602B080BDC04695
:401F000080B582B000AF78602B231800BD4602B080BDC04680B582B000AF78602B231800BD4602B080BDC04680B582B000AF78602B231800BD4602B080BDC04680B582B056
:401F400000AF78602B231800BD4602B080BDC04680B582B000AF78602B231800BD4602B080BDC04680B582B000AF78602B231800BD4602B080BDC04680B582B000AF7860F6
:401F80002B231800BD4602B080BDC04680B500AF2B231800BD4680BD80B582B000AF0200FB1D1A702B231800BD4602B080BDC04680B582B000AF786039602B231800BD4631
:401FC00002B080BD80B500AFC046BD4680BDC04680B582B000AF786000F050F87B68180000F00AF8032000F015F800F03BF8C046BD4602B080BDC04680B582B000AF786080
:40200000034B7A681A67C046BD4602B080BDC0460000002090B585B000AF0200FB1D1A700623FB600B23FC18FFF71FFE030023700B4B0B4A1268C0218A431100FA1D107812
:40204000FA68904002000A431A600B23FB181B781800FFF70EFEC046BD4605B090BDC0460CE400E080B500AF034B802252011A60C046BD4680BDC04600E100E080B500AF04
:40208000034B802252011A60C046BD4680BDC04680E100E080B500AF11F0FEFFC046BD4680BDC046002243088B4274D303098B425FD3030A8B4244D3030B8B4228D3030C46
:4020C0008B420DD3FF22090212BA030C8B4202D31212090265D0030B8B4219D300E0090AC30B8B4201D3CB03C01A5241830B8B4201D38B03C01A5241430B8B4201D34B035B
:40210000C01A5241030B8B4201D30B03C01A5241C30A8B4201D3CB02C01A5241830A8B4201D38B02C01A5241430A8B4201D34B02C01A5241030A8B4201D30B02C01A524168
:40214000CDD2C3098B4201D3CB01C01A524183098B4201D38B01C01A524143098B4201D34B01C01A524103098B4201D30B01C01A5241C3088B4201D3CB00C01A52418308F9
:402180008B4201D38B00C01A524143088B4201D34B00C01A5241411A00D20146524110467047FFE701B5002000F0F0F802BDC0460029F7D076E7704703460B437FD4002265
:4021C00043088B4274D303098B425FD3030A8B4244D3030B8B4228D3030C8B420DD3FF22090212BA030C8B4202D31212090265D0030B8B4219D300E0090AC30B8B4201D3BC
:40220000CB03C01A5241830B8B4201D38B03C01A5241430B8B4201D34B03C01A5241030B8B4201D30B03C01A5241C30A8B4201D3CB02C01A5241830A8B4201D38B02C01A28
:402240005241430A8B4201D34B02C01A5241030A8B4201D30B02C01A5241CDD2C3098B4201D3CB01C01A524183098B4201D38B01C01A524143098B4201D34B01C01A5241EA
:4022800003098B4201D30B01C01A5241C3088B4201D3CB00C01A524183088B4201D38B00C01A524143088B4201D34B00C01A5241411A00D201465241104670475DE0CA0F62
:4022C00000D04942031000D34042534000229C4603098B422DD3030A8B4212D3FC22890112BA030A8B420CD3890192118B4208D3890192118B4204D389013AD0921100E002
:402300008909C3098B4201D3CB01C01A524183098B4201D38B01C01A524143098B4201D34B01C01A524103098B4201D30B01C01A5241C3088B4201D3CB00C01A5241830844
:402340008B4201D38B00C01A5241D9D243088B4201D34B00C01A5241411A00D20146634652415B10104601D34042002B00D54942704763465B1000D3404201B5002000F03D
:4023800005F802BD0029F8D016E770477047C046014B18687047C046381000200E4B70B500251E000D4CE41AA410A54204D0AB00F35898470135F8E711F064FF084B0025C1
:4023C0001E00084CE41AA410A54204D0AB00F35898470135F8E770BD9042010090420100904201009842010030B50024A24208D0035D651C0C5DA34201D0181B02E02C008D
:40240000F4E7002030BD002310B59A4203D0CC5CC4540133F9E710BD03008218934202D019700133FAE77047134A1088810703D08107890F401A001D11791030484381B2F4
:402440005088820703D08207920F801A001D800040180A494030098980B2CA0701D0503080B2890706D504495422091F09785143081880B270470000860C0020C810002076
:4024800010B501F06BFF10BD10B501F06DFF10BD10B501F07FFF10BD10B500F05BFA10BD10B50749044609780220002907D1204601F0C8FF002802D120460AF00DFE10BD14
:4024C000240E002070B504460120002C12D02368002B0FD0616800290CD0074D06222889208118462968FFF78EFF6968606809780170002070BD0000C8100020FFB585B090
:40250000002768460E9D07734F481C460078002802D0082009B0F0BD10990F9801900095029105A807C800F007F90028F2D16946264603AB84460873002C19D0002115E00F
:402540008A00B75A082F09D990198078002805D0083FB7521878401C187005E0002914D00027B75290198770491CC9B2A942E7D360460028CED10F98002809D0109901F04F
:402580009DFA002804D00120C4E701208446EFE701F000FF2D480021416081600599016021888180022D07D3A1798171A17AC171A1890181218A418100211EE0481C19E053
:4025C00082008B00A75AE65ABE46BE4211D26F463E80B4461E190296B678BE7001967646E6521719029EBB78B3706646A652019EBE70401CA842E3D3491CA942DED3134894
:4026000022460C3000906846037B0799069800F01BF90028B8D168460B4C007B60700B480C3001F0E7FE0028AED1084907480C3107F022FE0028A7D107F03CFE0028A3D18A
:402640000121217066E70000800C0020BC100020F8B5054636480F460078002802D002242046F8BD002F60D000243249002D16D02A89D0070DD02868002808D003881B3B5B
:40268000E12B04D24088FB2801D81B2801D2012409E0900707D56868002804D1F7E70020088108604860002CDAD122482E8906811F481B21801D01804180042101711C497C
:4026C0000020891C0870F00705D019480622801D2968FFF798FE1749B00703D56A68144812788270124D0E46AD1D281F0D60486001F0CEFE284601F0BDFE30890EF028FA6C
:4027000030890DF011FC28880DF014FC30890EF089FB03461033FFF787FE1F21C018890140183880A91F88809AE7012498E70000800C0020C8100020FFB58446384F1C4625
:402740000020BB883F78054602460646002F11D100290ED0029999420BD36146002908D0002C06D00A99002906D02E4B0B99994202D2012004B0F0BD002144E0AB001F1932
:40278000BF78002F3BD0E35A002B38D07B43591889B22B0000F04AF8050410161C253100A7782388BC46FF27233BEB37BB4222D26346032B1FD322E0A388002B1FD0302B02
:4027C00019D31CE02389002B19D0282B13D316E0A289002A13D01346134F233BBB420AD20DE0268A002A0AD033460F4F233BBB4201D2964203D901200EE0002001E0002846
:402800000AD16D1CEDB2099B9D42B7D31C2463435B1802998B42ACD89642AAD8AAE70000800C002079020000BAFF000030B47446641E2578641CAB4200D21D46635D5B00FE
:40284000E31830BC18470000FFB583B0002469460C801F4606468C80002806D00598002803D004983043800701D0012466E0002FFBD03449049809888842F6D3FFF722FB5D
:40288000FFF708FB00F016FC002855D100F07EFD002851D12C49084601F044F905042D0C4AD12A480499066081800021C18007810C98007AC00704D0684601F084FD04008F
:4028C00007D10C98007A800703D501A801F084FD0446BF1DFEB2002C20D13146059800F05DF804001AD10EF0ABFA040016D16A461088928808368518144AF1B29088D288EF
:40290000AEB29319984207D3401B801A80B201F0F9FB050007D000E0FF25012400F062FA002D04D008E0F8B200F01CF9F6E700F085FA07490120087000F0CEFB204607B0D7
:40294000F0BD0000840C0020892A0000D41000208C0C002010B503480078012801D101F073FA10BD8C0C002070B5084B0446DA889E8803205518B54206D8186880182060DE
:40298000D8884018D880002070BD0000D41000200148008970470000D4100020F0B587B007460D4600208900009006916846FFF7DBFF844600285DD13048009901600021AC
:4029C00017E02E4B88001A680629115406D22C4C0419667882185670628805E0C419203CA67A8218567022891B68C018491C4280C9B2A942E5D300242DE0601CC2B2059095
:402A000025E01E4FA30039689600581840887118039604904E88B04217D938466F46FE80B6464F786E4677710297049F4F800168039F5E18767879184E7001687646591835
:402A40004E800068029F18184770521CD2B2AA42D7D30598C4B2AC42CFD36046002809D168460699FFF780FF8446002802D1054900980860604607B0F0BD0000900C00202A
:402A8000B8420100940C00207047000010B5002809D005494A68002A05D0011F08788000105801F0DDFA10BD900C002010B50446FFF76EFFC0B2801DA0420CD307484068CD
:402AC000002808D0A100405801F03CFA002801D00470001D10BD002010BD0000900C0020F8B516460D460446FFF752FFC0B2801DA04203D20020C0430090F8BDB2B2E9B25C
:402B0000684601F045FA0099481C03D0024AA000526811500098F8BD900C0020F8B50746FFF736FF801DC6B20A49002005460C680DE06178002907D06188B94202D3207854
:402B4000FFF7B4FF002804D1241D6D1CEDB2B542EFD3F8BD900C002010B5002801D0FFF795FF10BD70B506460948002504680BE06178002905D062882078121D0023FFF728
:402B8000AFFF241D6D1CEDB2B542F1D370BD0000900C0020FFB581B00A9F16000C4620D000F0F6F8054604281BD0002F0CD03846FFF7B4FF20492A0151184860002810D055
:402BC0003A460499FFF71FFC1B4928010E504618778101980570200406D47D20C000444304E0FF2005B0F0BD6404640C00F0BEF80746042807D000F053FAA0420BD800F051
:402C00004FFA201A03E0204600F0AEFA0020F06035720020E6E700F043FA009000F0BAFA00980121001B009000F0F0F802493A0151180098C860E6E7E0100020F8B5042829
:402C400001D3FF20F8BD060116483418217A042903D0E068002802D017E00020F8BD00F01FFA054600F096FA00F0A0F804280CD001010C480F18F8680021451900F0C6F8E4
:402C80000020F860284600F06FFA6068054D002801D0FFF761FF042020720020A8516081E060DAE7E0100020FEB500266A46304601232549050169180D7A042D02D0C968D8
:402CC00000291BD000211154401CC0B20428F0D300246846005D002830D01B48210108184189476805680291002101604160042241810272C160002E02D015E01354E3E742
:402D000000F054F804280ED001010F4808180190C6680021304600F079F801980021C160304600F021FA0126002D07D038460299A847002F02D03846FFF70EFF641CE4B2F6
:402D4000042CC6D3FEBD0000E01000200EB5002005216A460090118150810348694600680EF0F5FE0EBD0000980C0020074A0020010189180B7A042B02D0C968002903D06A
:402D8000401CC0B20428F3D370470000E01000200549002002015218127A042A03D0401CC0B20428F6D37047E010002030B50A4B04200A4C00210A011219157A042D06D0F9
:402DC000D268002A03D09A4201D808461346491CC9B20429EFD330BDFFFF0000E01000207047000030B50020074C05460423020111190B72A5504D60401C4D81C0B2CD60E0
:402E00000428F4D330BD0000E010002030B5094C00231A011219157A042D04D0D568002906D02D18D5605B1CDBB2042BF1D330BD2D1AF7E7E0100020002070471CB50024D0
:402E400069460C70142001902346054A05480EF083FE04480068401C00D1FF2420461CBDB92E0000980C00203EB5124A0146FF2000230124126800290DD0012914D0042938
:402E800008D104206946009308814B8110460EF05EFE80B23EBD6846009304814381694610460EF04FFEF4E768460093048143816946EBE7980C002070B545890468416815
:402EC00000890300FFF7B2FC08280509091E22282628002006F080F81EE0022908D0C8B22A4621460CF074FF2046FFF735FE13E002202A4621460CF06BFF2946204600F0B0
:402F00000DF809E000200EF021FB05E02046FFF7CBFE01E0FFF756F8002070BD014B0022DB6818479C0C002070B5448905680089022803D0032809D0FF2070BD2246094C23
:402F40000023A46829460120A04708E0FFF7A0FA241DA2B200232946022007F040F8002070BD00009C0C0020704700000248002141600180418070479C0C002070B50C46AB
:402F8000002186B016460391012802D0022859D116E003A9012007F077F801281BD1039D324621462846FFF72EFA0095287801900220694608814E816846FFF7B5FF41E0CA
:402FC000214D002B686809D0049004A9022007F05BF801281DD0022006B070BD002812D0298840182146FFF70EFA28880024801980B228806988091D884206D12C80134849
:40300000FFF792FF03E00320E6E788421AD96C6018E004986860E278A378110219430B4A698000231060E3565360032313815181A1788170E178C1706178417021780170FC
:40304000042028800020C7E79C0C0020201100203EB515460C46022803D004280CD000203EBD0091019002206946088107484A8100680EF06CFD07E00CF0AAFE044B00227C
:40308000DB6829462046984701203EBD980C00209C0C0020014AD160906070479C0C0020034801688068081A0A214843000970472C11002010B5FEF7F5FE4C220449054840
:4030C000FFF7A1F903490120C870002010BD0000D44201003015002010B5FEF7D3FE10BD70B5134C2368002B08D0207B1149C20705D04008400020738868A08070BD8868ED
:403100000B4AA18880B29268814203D90A4D691A091802E0814202D2411A5118A160A080A0689842EAD30EF02FFD00F013F870BD2C110020C0102E40FFFF000010B5084650
:403140001946FFF7A7FF10BD704710B5FFF780FF10BD000003480021016041608160C160704700002C110020024610B5FF20002A0CD0FFF7EFFF064C0321207B0843207340
:4031800010010A21FFF714F82060002010BD00002C11002000B504480A21806848430209FFF7D8FF104600BD2C1100200248007B8007C00F704700002C11002010B54B4998
:4031C0000868002802DA4A4B01221A70022290430860484800694549C00B4031096A0246C907C90F0A4259D0012000F0EDFA3F480E216C30FEF750FD3E4820218430FEF723
:403200004BFD3C4814219C30FEF746FD3948FF21C131A430FEF740FD3648FF212F31B030FEF73AFD33483449BC30FEF735FD31483249AC30FEF730FD30492E48491CB430B1
:40324000FEF72AFD2B482E49B830FEF725FD29482C49CC30FEF720FD26482B490830FEF71BFD24482949A830FEF716FD214828498830FEF711FD1F4826498C30FEF70CFD4B
:403280001C481921C9029030FEF706FDFEF714FDFEF724FEC0B2022812D01FE000290BD0002101420AD0114801216030FEF7F4FC0120FEF7DBFD97E70121F2E7FF2010BDCE
:4032C00015491648FEF7E8FC14481549001DFEF7E3FC124800210830FEF7DEFC54200449C043891C0870002010BD000000F02E40AC0C002000002E40320300002F3F0000F7
:403300003102000010520000EC160000FA12000031D000003AE300009956000080012E40F80F000070B50646581C80B245086D00002408E0304600F0C1F81055000A111952
:40334000A41C4870A4B2AC42F4D3D80705D0D0182038D15CC47FD454C17770BD30B50A4C002100195B1E07E0541864782502545C2C430480891C89B29942F5DB994201D1BA
:40338000515C018030BD000000102E4010B5FF2000F01AFA0F49FF2048700E481021801D41800121417001700A490020C91C4870FFF704FF04000AD100F02EF907210648BF
:4033C000FEF75AFC044807211830FEF755FC204610BD0000AC0C0020CC112E4070B5002405465B1E0AE0284600F068F8010A161971702D1D1055A41CADB2A4B29C42F2DB8B
:403400009C4203D1284600F059F8105570BD000070B500210A4D5B1E0AE0541864782602545C344346193480001D891C80B289B29942F2DB994202D1515C4019018070BDB6
:4034400000102E40F0B50599091FCFB200217E1E0BE0541864782502545C2C43164D45192C80001D891C80B289B2B142F1DBFC0712D01C78515C24020F4A0C4381180C8038
:403480009C785D78001D210280B2294384182180001D80B2D9780CE059781A7809021143054A84182180001DD9789B78090280B2194380180180F0BD00102E40014940182E
:4034C0000088704700102E4010B50B490020487000F0A2F8002000F09DF9002000F08AF907210648FEF7C8FB044807211830FEF7C3FB002010BD0000AF0C0020CC112E40AB
:4035000010B50C48007801280FD100F093FF00F0DDF8002804D10848016A490849000162054802213030FEF7B7FB02490020C91E087010BDAF0C002040F02E4010B50B4658
:40354000062812D006DC01280CD0032801D1FFF7BBFF10BD0A28FCD00B28FAD105480078107010BDFFF712FF10BD1146184600F06DF910BDB20C0020F8B5244DAC6A0127E6
:40358000A007234E002816DA307806280ED1286A384328621F480069F903084381B21D481030FEF779FB042000F00EF9174802212830FEF761FBE00718D000F0CBFF01283F
:4035C0000FD1002001F018F8062000F0FDF81049FF20C91E48707078002802D1686B384368630A4801212830FEF746FBE0050BD53078042802D1052000F0E6F80348FF21E0
:4036000001312830FEF738FBF8BD000040F02E40AF0C002000002E4010B503212348FEF73BFB0120FEF712FC20483038406A204C80076178800F890001431C480C38FEF75A
:403640002BFB6078002808D0401E022181401820FEF798FEC000083800E0B82081B21548FEF71AFB1348032109021438FEF714FB10481149B830FEF70FFB612189010F481F
:40368000FEF70AFB0D480321001FFEF705FB0C490C48FEF701FB0B480B496038FEF7FCFA084801218838FEF7F7FA10BD70F02E40B20C0020D8102E4090890000041E2E402F
:4036C000FF0F000058122E40209000000449012009684907490F022900D000207047000000010B4000B5FFF7F1FF002805D009480168C908C900016000BD0748016A49087A
:4037000049000162054801690122D2039143016100BD000000010B4040F02E4000002E400848017806290BD140780749002803D1486B400840004863C86A01221043C86253
:4037400070470000AF0C002040F02E400148007870470000AF0C002002484078022800D001207047AC0C002000B50300FFF75EF8080D050D0B070507090D012000BD0320BA
:4037800000BD042000BD022000BDFF2000BD0000074A9168D26889B2064B92B2994204D105498A4201D1012100E000210170704780002E4033D000003FE300000149487060
:4037C00070470000AF0C002010B50446FEF762FB072C01D9FF2C01D102480470FEF752FB10BD0000AF0C00200149487070470000AC0C002010B5064A012805D01921C9027B
:403800001046FEF749FA10BD1D21C902F8E7000090002E4010B50A4A141D012808D009491046FEF739FA08492046FEF735FA10BD04491046891CFEF72FFA0349491DF3E792
:4038400088002E4031D000003AE3000070B50C460546FEF743FBC0B202280E49287804D0FF2810D04C280CD810E0FF2809D10A4AD0680004800F032801D0087807E090690D
:40388000000A553803E00878207070BD4F382070087070BDAE0C002000002E40F0B50122002834D0002932D00424420600D00524792342065B06D21800D0641C03460022DB
:4038C0001EE00C2516466E43124D00277519AF72104F002ABB51696007D0661EB24209D10D4E86197606760E05E05E06760E8027BE1B00E080269B198919521C2E81D2B20C
:40390000A242DED303480549006B002288611046F0BD0000B813002079020000B80C002018B50020694608700A48006900280ED0132149014018047E684604704F21C9000E
:40394000054800F05BF8A04201D0012018BD002018BD0000B80C00203C110020074900200C2242435218927A012A05D0401CC0B20628F5D30020704701207047B8130020D1
:40398000F8B50F000446164609D01A4D1A496868A04202D94018A04201D38E4201D90120F8BD39462046FEF71FFD002820D0324639462046FEF727FD0E49F0B201262031F2
:4039C0008E7600210C220B4653430A4A9A1813895568EF18A74207D9641B1B1B9672834206DAC01A1469C0B2491CC9B20629E9D30020F8BDB813002079020000034610B51F
:403A00000020024604E09C5C2018521CC0B292B28A42F8D310BD000070B500F05FF8084C064A216907480D46FEF7EDFC05492846FFF734FFFFF774FF207070BD79020000E2
:403A4000B80C00203C110020002070470020054A002902D0012902D002E0906000E0D06000207047B80C002070B5084C154608460549E26889182A46FEF7C5FCE0684019F9
:403A8000E06028B270BD00003C110020B80C00203EB50A226946FFF7E7FF044606480A2200686946FEF7A0FC002802D00020C0433EBD20463EBD0000BC0C0020002802D0FD
:403AC000044A914201D2FF20704703494A6108610020704779020000B80C0020024800218160C16070470000B80C002070B5074C15460548A26880182A46FFF741FFA068EE
:403B00004019A06028B270BD3C110020B80C002010B503490A220968FFF7E8FF10BD0000BC0C002010B50F4A002313600E4A13600E4B18600E4801600E49012008600E4956
:403B40000860000290600E490C4808600D4914300860FF381538506000F0BCF800F0CAF9002010BDEC0C0020D40C0020000D0020040D0020F00C0020E00C0020001500208B
:403B8000E40C0020F80C0020014610B50020002910D0094B1A689C685118A14209D25868196080188A0704D08A07920F891A091D196010BD002010BDD40C0020F8B5002466
:403BC000164E671E321F3D463168136806E01422624310328A58521C1BD0641C9C42F6D36A1C14D02C461422544322460C3288500C214843FFF7C8FF3168002808510AD0FF
:403C000031680020103408517068401C70602846F8BD2546E4E73846F8BD0000E40C0020F3B50026F64381B000281BDB1E490968884217D80299002914D01B4F1422044615
:403C40003F1D54432546396810354859401C09D0FEF720F938682F1F4159C359994203DBFEF710F93046FEBD214608310091465801590C20704308180C220299FEF7C3FBEC
:403C80000948761C001D0068C159B14200D100260549009A091D865008684159491C4151FEF7F0F80020FEBDE00C0020002803DB07490968884202D90020C043704704495C
:403CC0001422091D096850431030085870470000E00C0020F0B500200D4A451E0346171F50600FE014260146714314680E1DA3510C46166808343351166808343551146848
:403D0000401C635039688842ECD30020F0BD0000E40C0020F3B50026F64381B0002841DB2349096888423DD8029900293AD0204F142204463F1D5443254639681035485993
:403D4000401C2FD0FEF7A6F83868415900292BD0211D009146580C21005971430F46C1190C220298FEF74FFB11480021001D0068761C00590C34C0190160416081600C48E0
:403D8000001D00680159B14200D100260849009A091D865008684159491E4151FEF772F80020FEBD3046FEBDFEF76CF8FAE70000E00C0020FEB504460D4600201E49089E22
:403DC0000860471E009001900290002C11D0486885420ED2002A0CD0002E0AD0642E08D808460C3001681C2068430C18207A002801D03846FEBD0120226020721846FFF70C
:403E0000DDFE6060401C13D06681A6810A4827610C3067610179A94200D205710021684601810A462846029B00F040F82846FEBD00202072DDE70000EC0C002038B5012472
:403E4000009400F039F838BDFEB50027164EFF433D4600240EE01C20316860430818017A002906D04068FFF721FF002801D0254603E0641C3079A042EDDA681C12D01C21F7
:403E800030684D434419FEF705F869466068FFF741FF0546FDF7F6FF002DD9D1216868468847D5E7FEBD0000F80C002038B50024009400F001F838BD1FB500220C49541EF2
:403EC0000A60002811DB496888420ED808491C220C31096850430818406801A9FFF7A0FE401C02D0002004B010BD2046FBE70000EC0C0020F0B50021114A4D1E1746117173
:403F00000C3F0B46BD6016E008461C2460431668041D355114680646235014680836A3551468361DA353044616680A34335318301468491C255078688142E5D30020F0BD78
:403F4000F80C002038B500210091002811DB0F49097888420DDA0D4D04010C3529680859002807D0201D0818694600F06FF9002801D0002038BDFDF78DFF28680F34015D2C
:403F8000491E0155FDF77EFF009838BD080D0020F7B582B0002502986E1E06602E48D21C024017462D4A2C4610460C380178106805E02301C358002B0FD0641CE4B28C42F9
:403FC000F7D3711C28D03401211D40180191039900F02AF900281FD101E02646F1E71F48016820460C300F521C480399026820460E30115419480399026820460F30115472
:404000000398784300F0A0F8144900280968085102D00024009011E001251AE00F48016801980818009900F02CF9002801D0012502E00098C0190090641CE4B2039884421C
:40404000ECD3002D05D10298066004480179491C0171284605B0F0BDFCFF0000140D0020F8B50D4600216A468C461180002839DB23490978884235DA214B04010C3319686E
:404080000A59002A2ED020460C300B5A801C0E5C184670438018954224D3854222D2002006E007465F43BF18AF4206D0401CC0B2B042F6D36046002814D0114E271DC819E4
:4040C0000C366A46294600F006F900280AD168460088012808D030682946C01900F0D1F8002803D00120F8BD0020F8BDFDF7D2FE30680F34015D491C0155FDF7C3FEF3E7B0
:40410000080D0020F8B50F46002400F031F8002817D10C4900220B460C334A600EE021011D680E466A501D680C36AA53B61C1D680F31AA551D68641C6A54E4B2BC42EED335
:404140001A71F8BD080D002000280BD0C01C074A81085068890053884118994203D89368516018187047002070470000080D0020F8B5064600200F4D009029700C01214635
:404180006846FEF7F1FB00280CD129460C3100980860301B001F84B221466846FEF7E4FB002801D0FF20F8BD6C800098A8600020F8BD0000080D0020F8B5002827DB19499A
:4041C0000978884223DA174C05010C342168485900281CD028460C30085A009028460E300E5C401C0E5420682F1DC01900F064F800280CD12068002445590EE0094829462A
:404200000C300068C01900F03CF8002801D00120F8BD00982D18641CE4B2B442EED30020F8BD0000080D002030B50D4604000BD0A800FFF789FF6060002805D000202570AB
:40424000C0436080002030BD012030BD70B50D46040005D0002D03D00220205E002801DA012070BDFDF716FE0221615E60688900405828606088401E6080FDF703FE002068
:4042800070BD70B50D46040007D0002D05D002212078615E401E814201DB012070BDFDF7F9FD6088401C00B26080616880000D50FDF7E8FD002070BD10B5040009D02278EF
:4042C00000216068FEF7A8F80020C0436080002010BD012010BDF0B500231D46002802D00224045F0AE00120F0BD46689F00F6598E4201D1012503E05B1CDBB29C42F4DA05
:4043000015700020F0BD000001480078704700001C0D00207CB505460024FEF7B9F8A8796946087000A8062229460130FEF76BF80021684605F028F90C2806D0072806D020
:404340001F2806D0122806D006E0022404E0042402E0272400E0012420467CBD01480121417270473C16002010B502280BD0032802D0042809D102E000F0CCF905E000F0A7
:4043800077FAFF2801D100F087FAFFF7DFF9FFF7EBF910BD10B500F0AFFAFFF7D7F9FFF7E3F910BD70B504460025FEF771F8002C06D0A079012803D8214602F015FF00E08C
:4043C0000125284670BD01460120002902D05020088000207047000001460120002905D0034854220078504308800020704700001E0D002010B502460D49FE20487003248E
:4044000010460DF0C7FE002810D10DF06BFE00280CD105F095FE002808D100F063FC002804D105F057FB002800D10024204610BD1C0D002002480021018280210180704774
:4044400000102E4070B50025044600280ED0A07901280BD8FEF71CF8A0790028204602D003F0A2FA03E003F077FA00E00125284670BD0000014610B50120002904D00622B4
:404480000248FDF7C0FF002010BD0000280D002001460120002903D00878024908700020704700001E0D0020F0B5002493B00E46054627461094FDF7EBFF00F07DFE0028C7
:4044C00036D0002D0CD0EA7F1F2A01D9012407E000A829460130FDF796FFE87F69460870002E0FD0002C29D1F27F1F2A01D9012424E008A831460130FDF785FFF07F08A9D6
:40450000087001E0002C19D10020002D05D011A9684600F0A1FE10900120002E05D011A908A800F03DFF074601201099394301D0022403E0002801D000F0FAFD204613B023
:40454000F0BD10B5FFF702F9012801D1FFF704F910BD00000148007A704700003C16002038B504460120002C20D0617801291DD800290BD0FF25E535FDF78AFF0C48281872
:404580000088C0B22070072803D00EE0FF25CD35F2E70020694608706846FFF7F9F869460878012801D108202070002038BD000000102E40014A0021926810471C0D00202B
:4045C00008B500226B461A7026280CD0094A342852680BD0352805D1900703D50021352005F08AFE08BD19462620F9E7D007F9D03420F5E71C0D00200149087270470000C0
:404600003C160020F8B504460120002C26D06178012902D92278092A20D8002905D0FF25E5352078092803D004E0FF25CD35F8E708202070FDF72CFF2078114F114E08280C
:404640000DD00020FFF7E6F870780128207810D00D4969180880FE2070700020F8BD0120FFF7D8F80720B8810549203188800120F2E7B8810248217820308180EBE7000087
:40468000C0112E401C0D002000102E4070B50E46050001D0002400E00C4C002C11D0E28A500609D5D107C90F022003F01BFAE08A40218843E08204E0D107C90F012003F022
:4046C00011FA3146284602F0EBFE70BD9C150020F8B50546002004460D4E009013E022466946284601F052F90098002801D00DF033FDA878214602F0B5FCA878214602F08F
:40470000A3FC641CE4B2308AA042E8D8F8BD000068160020F8B54E4CFFF718F8012847D14C480078002843D002F042FE00283FD004F0B0FB00283BD0474E7078C00703D0EE
:4047400000F040FD012833D0307E00287DD17078002500285BD0000706D540488089070B00F02EF9384370D13B484178684604F0D9F9217A3A4CA2788918C9B2814262D800
:4047800002F016FE002860D0344860300789324E203602F057FC6846008802F081FC02F01DFD30490988884203D10120FFF70CF84BE02D49012008702748807B00281DD0B7
:4047C000002F1BD04036F07E002817D123486030008821494000C031498981420AD26078002807D103F0ACF92049088A03221202104308822078002800D0257002F086FC02
:404800000120FEF7DBFF00F049FC174C15E002F0CFFD002819D0102402F0E0FC214602F0C9FB02F03DFC104C0120207002F06EFC0020FEF7C3FF00F031FC20780128B4D13F
:40484000FEF750FF25700020F8BDFF20F8BD000070150020AC0C00207C150020A0102E40420D0020540D00202E0D0020E0112E4010B50848FF244078002809D102F098FD47
:40488000012805D1FEF73CFE0720FEF79DFF0024204610BD7C15002038B5FEF757FF012801D0002038BD02F083FD00280AD0114C6078C00703D000F085FC012802D0207E76
:4048C000002801D0FF2038BD617800290FD0684604F028F9022806D96846008802F0E0FB012002F01DFC0320FEF76EFFD9E70020F7E700007C15002038B51E4CFEF726FF6A
:40490000042813D0052811D0062812D003282AD007280AD100206946087002460120FEF70DFEFEF713FF0128FBD138BD00F0D6FB38BD02F00DFC00F0D1FB02F089FC80070F
:40494000800F0228F4D10C4841880029F0D05B21095D0029ECD101210170A07D0140022003F0C0F838BD02F0F7FB0120FEF72CFF38BD00009C150020420D0020F8B50646E5
:40498000002403F01DF90546304603F033F903460A480021068A0DE001228A401046174628401F40002803D0002F01D1224394B2491CC9B28E42EFD82046F8BD6816002073
:4049C00070B500252C460A4E03E0002C01D0002000E030460079002803D02046FFF7CEFF0543641C2406240EEFD0284670BD00009C1500201CB50020694648706846FFF765
:404A0000AFFD01AA69460A20FEF798FD6946042008561CBD70B50D4601F09EFB04000BD02079002808D0FDF733FDE178A0782A4602F0BCFD002070BD022070BD014800792A
:404A400070470000701500204030C07E002800D00120704700B500F001F800BD902148430749084A40186030417F491CC9B24177D289914201D300214177C8B270470000D7
:404A80007C1500206816002013B501F065FB04000BD001F01CFF002807D0214601AA0A310620FEF74BFD00201CBD02201CBD000010B50C4601F050FB00280AD001F007FFB4
:404AC000002806D0224604490A20FEF737FD002010BD022010BD00005D150020F3B581B0074601460026029803F062F80446002F01D0002500E0154D002D21D0284601F09A
:404B000061FB032C04D13946029803F0ADF806463846029902F098FA032C06D0002C10D00121384601F054FC03E03146384603F0ABFA284602F076F90221284602F08CF942
:404B4000FEBD3846029902F07FFAFEBD9C15002010B5044600F04CFA002804D103F076FF002801D00C2010BD2078611C02F024FEFF2801D01F2010BD02F06AFEFF280AD046
:404B80002178621C02F0E8F9044821780068026B601C904710BD072010BD0000680D002010B503F053FF002801D00C2010BD02F0E5FD03480068C06A8047002010BD000047
:404BC000680D002070B50D46044610210DF004FA1021601806460DF0FFF9334610221946204603F061FF102130460DF0F5F902202870204604F0A4FE70BD0000FEB5044613
:404C00004078217802028006870FE0781143A5780E050002360D0543304601F09DFAEAB23B4621460096019000F0FAF90006000E14D10B482246006801994369284698475F
:404C4000C0B2FF280AD10198EAB24030817EFF23491C81762146019800F0E1F8FEBD0000840D00200020704710B5044603F0EEFE002801D00C2010BD2078611C02F09CFD12
:404C8000FF2808D002F0D0FC044821780068426B601C904710BD1F2010BD0000680D002010B500F06BF904F015FF002010BD10B5044600786178E2780843A17811430843B1
:404CC000217908436179084305D003F0B1FE002803D00C2010BD122010BD204602F064FE002010BD10B5FDF7F9F802F08BFF044804F010F802F0A2FC012000F003F810BDC2
:404D000044150020F1B586B003A8009005A8019028489F22017B114001736846FDF7D2FB002845D169460989C90705D0224806990068C2686846904769460989890706D5D4
:404D4000002835D11D480068816A0698884700282ED11B4E0025757075737571F575357675767575B570F570B5713746F5730120D03738731F20F880FF2130467972A0301E
:404D80000176457600F028FB00242046069901F049FD002803D1641C2406240EF5D0FD720749BD72B573C0310D704D704D600D7207B0F0BD30150020840D0020680D002035
:404DC0007C15002070B505460E46084602F0F8FE0446304602F00EFF0121A9400A46224001400A4301D0012070BD002070BD10B50446084602F0FEFE0121A140014201D030
:404E0000012010BD002010BD10B5FEF79FFC032804D102F0A1F90120FEF7D6FC10BDFEB51C4616460F46054601F0FCFFA878FFF711FE02460190334639460094284600F01C
:404E40000DF8002808D1A8780199FFF71FFCFF2C02D138460DF080F9FEBD0000FFB585B005460E980C46FF2810D02B49C00009680A5840180179C0795278814201D90126E1
:404E800001E09006860F6846038108E06078A1788006860FE0780002014368460181284601F046FD070007D021462846079A00F001FD384609B0F0BD304600F0AFFD04AE66
:404EC0000346039002AA29460096204600F019FC3C20405D002818D0284601F029FD012813D0684600890096C0B20190A878231DFF22079902F088FA68460089039BC2B272
:404F0000A878079902F0CCFDD3E7684600890021C0B20091E9E70000800D0020F8B5002600253046FFF72AFD07001DD090201149704340186030447F12E0601CFDF738F9EA
:404F4000CCB23846E040C007C00F07D02146304602F070F821463046FFF7C0FD6D1CEDB20548018AA942E8D8761C3606360ED7D0F8BD00007C1500206816002010B502F0C2
:404F80005DFB0020FFF7BEFE0DF07CF9002010BDF8B5002400F010F90123012800D10124104F00203E4620360425082203E0002801D0002100E031460979002907D00129AF
:404FC0000BD002290BD0114681402143CCB2401C0006000EEBD07C70F8BD1C43F7E72C43F5E700007C15002010B5FFF7D1FF10BD10B5044604F0C0FE002802D1601C00F051
:4050000001F810BD1CB500240094062269460194FDF7EAF9002800D1122420461CBD0000F8B5044600201E4617460D46002C12D0002D10D0022E0ED0032E0CD0002F0AD006
:405040002179092907D0002905D013494A7F5A21095D8A4207D82089002104F0A6FB28460DF07AF8FF20E18F012905D1002F03D0012E06D0002E04D0374301D10121E18734
:40508000F8BD0021E187069A2A70069A120A6A70AF70E970F8BD00003015002070B50E4CFCF7E3FD0546FEF751FB062802D02078012803D02846FCF7DCFD70BDFCF738FA52
:4050C0002846FCF7D6FDFEF741FB0628F5D020780028E5D170BD00002E0D002010B5FCF7C4FD0446FEF732FB012809D0FEF72EFB022805D0FCF71CFA2046FCF7BAFDEEE768
:405100002046FCF7B6FD10BD10B50B4681791943817103D08078114602F090FC10BD10B582798A43827102D1807802F09BFC10BD30B50C4C0220A28A0B4B9978002901D03E
:40514000022906D11D785B78EB18282B01D9032002E0032900D101205105490DC0020143A18230BDC0112E40380D002000B500F029F8002807D0012805D0032801D0042821
:4051800001D0002000BD012000BD014600B50020C90701D000F010F800BD014600B50020C90701D000F008F800BD00000148006870470000300D002001480088000A704730
:4051C00020102E400448008B410501D5042070474007800F7047000000102E400148406870470000300D00207CB50446002568460570200610D5FFF7E5FF01280CD101A8DC
:4052000001F0BAFF6846007900F058FB012001F071FE0220FFF7E8FE600712D50C48017901290ED10571684601F0A6FF6846007800F078FB0220FFF7D7FE00212620FFF729
:40524000BFF9044800680169204688477CBD00003C0D0020680D002010B501460A4A007800241070FFF7A8FF0128084603D002F007FB204610BD00F0E7F80400F9D103487A
:4052800001210170F5E70000380D00203C16002070B50446FFF790FF002801D00C2070BDA27B01211F48002A827801D00A4301E05208520082706279012A14D0C178490887
:4052C0004900C170184D2868016820468847207901280CD06188208803F066F92080207904280FD015E0C2780A43C270EAE72868C168E01D8847E01D02F042FB0B48008DCC
:40530000208006E02868C168E01D8847E01D02F037FB074920798870204602F0BFFA002070BD00007C150020680D002030150020380D002008B50178FFF73EFF814201D1F4
:405340000C2008BD002914D0072069460870FFF70DFF012807D10121684600F0E5F8012801D0092008BDFFF7E3FE02F0CBFA012011E0FFF7FBFE012806D1684601F0FCFE31
:405380006846007800F0CEFA02F0B2FAFFF714FF0028FBD10220FFF727FE002008BD000010B501460A4A007800245070FFF704FF0128084603D002F021FB204610BD00F022
:4053C00065F80400F9D1034801214170F5E70000380D00203C16002038B568460CF052FE002801D01F2038BD01210098C902018041800025057145718571072141738573BB
:4054000002F04CFA009C202200212046FDF704F825702A460021601CFCF7FEFF204602F02FFA204602F0EAFA00980CF095FE062200210448FCF7F0FF02480C38856000205F
:4054400038BD00003C0D0020F8B5044600250D4800950078012806D068460CF013FE002803D007250CE00C250AE0074E009830602278611C401CFCF7C6FF31682078087017
:405480002846F8BD3C160020300D0020F8B5044600250D4800954078012806D068460CF0F1FD002803D007250CE00C250AE0074E009870602278611C401CFCF7A4FF7168D8
:4054C000207808702846F8BD3C160020300D00200346084800B5834209D8184600F03CFE002804D00089984201D1012000BD002000BD0000FF0E0000074A9179491C8906E6
:40550000890E917138220A4092014907090E114308430249084070477C150020FF0E0000C006C00E70470000F8B507460E4600240D4803E0002C01D0002500E005462979A9
:40554000002905D0641C2406240EF3D00020F8BD0021204601F066F92E712046FFF7CCFF28813C700120F8BD9C15002010B503F0CFFA0222002100F003F802F00BF810BDAD
:4055800010B5094B40074907000F090F185A595A40185043C0086421FCF70AFE002800D1012080B210BD000020430100F7B53D20405C88B015460C46002802D028780428EF
:4055C00002D200200BB0F0BD6946087200262046FFF73AFA012800D00126204603A938300191009023460327A17E34333246206A03F0AAFB02A8089900900B4601912046DD
:405600003A4603A9243003F02FFA02466846007A2870204601F0F2F81046D3E7FFB587B00C4605461078694608723D20005D1746002826D000262046FFF706FA012800D08C
:405640000126204603A93830019100902346A17E34333246206A03F077FB02A80090291D019120462B1D03A924300A9A03F0FCF902006846007A388002D1204601F0BEF803
:4056800010460BB0F0BDF0B505463C20405C89B016460C4600280CD0307869460873002806D000272046FFF7CFF9012803D003E01F2009B0F0BD012703200890204604A9C4
:4056C0003830019100902346E17E34333A46E06903F03AFB6846007B03A928180290009120462B46019504A92430089A03F0F0F902466846007B3070204601F089F810469D
:40570000D7E7FFB505463C20405C89B016460C46002810D0084601F00BF901280BD0308869468883002809D000272046FFF78CF9012805D005E000200DB0F0BD0220FBE792
:405740000127204603A93830019100902346E17E34333A46E06903F0F7FA291D2B1D07A8129A6D4607C5204603A924300C9A03F0AFF902466846808B3080204601F048F832
:405780001046D9E770B50C460646FFF75DF9012824D06079227900020243E079A37900020343607A921F0102207A0843E17A0D02A17A154C294335464035A24207D20A387B
:4057C000221F904203D2FF20F43083420DD91E202873304600F0C8FB1E2070BD00222421304602F027FE242070BDB07801F0BEFD012801D0002070BD28202873304600F09D
:40580000B3FB282070BD00007B0C0000002801D0002000E003484030C07F012800D00020704700009C1500200146002049070ED50021084B03E0002901D0002200E01A46DD
:405840001279022A04D0491C0906090EF3D07047012070479C1500200146002049070ED50021084B03E0002901D0002200E01A461279022A04D0491C0906090EF3D0704712
:40588000012070479C15002010B5044680346068002803D00CF074FC0020606010BD4030417070474030817070474030017070470171704792001018C166704770B53C25D1
:4058C00001F030FA040004D020460021433001F0EDFCFF222946204600F0E8FB002C02D0A07801F0A1F970BD10B5002801D0002000E00348002802D0008903F09DFF10BD62
:405900009C15002010B5002801D0002000E00448002804D00179072901D100F047F810BD9C15002010B501F0FDF9002802D0807801F07AF910BD00207047000070B5054631
:40594000008A00281ED01049F122097B1140C90618D5294640314A8A098A521C4A4392B2D10800D10121540801E0621A94B2A042FBD9FEF7C9FC012804D1298AA878224690
:4059800001F0CAFD70BD00003015002010B50023054C0B60248A944204D992001018C26E0A60C36610BD00006816002038B5044600200090A079002814D14020015D0529B7
:4059C00001D00E290ED168460CF06CFB002809D12046009902F00CFD03481021428B2046FFF792FB38BD00003015002010B50B4604460146184602F06BF9002802D020466C
:405A00000CF0B4FB10BD13B5044601AA11460620FDF794FD6846818861811CBD002800D10220704770470000F8B504462346401D543300909A1EA078911E01F0B9FB2546D1
:405A40004035A88A298A8000FCF7B2FB401E81B2688A884203D96982A07802F07DF8698A8C20015120460021433001F01FFC27480088E88103F04CF8E989891C8AB261795E
:405A8000FFF77EFD01F086FD03F042F82A8A6179FFF776FD074601F071FD688A002806D01B49088A032212021043088202E0002002F046F81648803801886E8A002E0CD062
:405AC000304648431349FCF75DFC0004000C01D0401C80B21049488002E00F4800214180288A704381B2A07801F096FFFF2228374932B9B21346204602F05AFDE98AA07823
:405B000001F00AFFA07801F0BFFAF8BD80102E40E0112E4071020000420D00207FB504468034616805460E46183108226846FCF76AFC31462031082202A8FCF764FC102181
:405B400068460CF049FA6068102108300CF044FA60682B46083024331022694602F0A4FF7FBD10B504460821FFF7D9FA10212046FFF7D5FA207905281FD006281DD00828F6
:405B80001AD12189002003F0CFFD072020712046FEF75AFF014620464030012913D00E21017000210176204601F050F82046FFF76BFE2046FFF7C2FE10BD20890122002169
:405BC00003F096FDE1E70521EAE70000FFB581B01F4604460821FFF7A2FA10212046FFF79EFA2079082803D0092804D0042203E00422012501E009220025204600F05EFE13
:405C0000264600204036307022712046FFF73CFE0398002D02D0012808D00BE001280AD120890022029903F063FD04E02189029803F07AFD012700203076012F04D020466C
:405C400001F004F805B0F0BD02983073204602F01DFC054605480121428B2046FFF754FA002DEFD109202071ECE700003015002070B50C460546FEF7E7FE012809D108214F
:405C80002846FFF74CFA0023012221462846FFF79DFF70BD10B5044600F010FE2046FFF7F3FD00214034217010BD70B505461A24FEF7CAFE012809D108212846FFF72FFAF0
:405CC0000023012221462846FFF780FF70BD0000F8B50446002000900E4668460CF0E2F9002801D00D20F8BD8420005908212030009D00F02CFA20460421383000F027FA5F
:405D0000002E02D1204600F03BFE2946204602F0FAFA0E480821428B2046FFF7F5F9204601F005F825464035002808D0204600F023F8002801D0092028700020F8BD082026
:405D40002870204601F06EF8F7E7000030150020014610B540310A460978082906D0092907D00A2901D100F091F810BD0B20107010BD00F001F810BD70B504460079254661
:405D80004035052805D0062803D008280FD00C2070BD03220621204602F04CFB0D480821428B2046FFF7B0F91120287010E006202873204602F06AFB0646AA8A0A20424362
:405DC00001212046FFF7A0F9002E01D109202071002070BD3015002038B504460020009068460CF05FF9002801D00D2038BD2046009D00F0C3F908202071204600F0C0FDA1
:405E00002946204602F0B6FA00213D2001550F2040210855204601F005F8002038BD00B5024600F04BFD10214032117000BD10B50446FEF709FE012809D04020005D1128A8
:405E400005D100231A4606212046FFF7BFFE10BD10B5FFF786FE10BD38B504460021684600910CF01FF900280CD12046009902F002FB05480821428B2046FFF745F90D2008
:405E80004034207038BD00003015002038B504460021684600910CF005F9002801D00D2038BD2046009902F0DBFA05480821428B2046FFF729F90C2040342070002038BD0C
:405EC0003015002000787047F8B5002569460D70002801D0002400E01F4C002C18D0204600F0F5FC002813D0207903280BD005280CD026464036B18AA07801F097FDB078B8
:405F0000012806D01DE0042020711DE006202071F8BD0021204601F0F8FE274680373868002802D00CF02CF93D600020B0702079072802D12046FFF701FD0221204600F0AF
:405F40008BFF20790428E3D1207A694608703420FEF736FBF8BD00009C15002010B54C22115400F052F810BD10B50446FF21FFF7D6F809202071A07801F07EFD10BD0000C0
:405F800038B5FF216A461180002801D0002400E00B4C002C12D011460620FDF7CFFA684601882046FFF72FFD204600F0C7FC002804D104480068C1692046884738BD00001A
:405FC0009C150020840D002010B504468079002809D022214C200155FF212046FFF79FF8204600F012F810BD10B5037902464032002B03D01173092B02D003E0002100E06A
:406000002221117300F001F810BDFEB504460089002700902781207926464036002817D0012815D002280AD112E002AA01A9204601F03CFE002807D101980CF097F82046FE
:4060400001F05CFE0028F0D02046FEF741FBB776254680352868002802D00CF091F82F606868002802D00CF08BF86F60317B002919D0009800F064F8A078002101F026F869
:406080002046FFF773FAA07801F05AF9A07800F0CBFDFF212046FFF742F80B20FEF7A4FF00F0A8FCFEBD1F213173E2E7F8B517460E46054602F028FD04003CD020460C3004
:4060C00001F0E4F82046062200211830FCF7A4F92046062200211230FCF79EF91648224600683946436A28469847074626702846FEF7AAFC012148406070002D10D0288906
:40610000608028464030C1782171002E0FD169796171018AE180418A2181808A608106E00648008BC005C00F2071002060803946204603F07CFAF8BD680D002000102E40D6
:406140000A4610B50146002003F08EFB10BD10B50BF01EFD10BD000000B50146FFF7E0F9002801D0002000E00348002802D002898A4200D0002000BD9C15002038B504469D
:4061800080346068002806D168460BF09BFF002801D100986060606838BD000010B5014600F0C6FB0128887802D0FEF757FC10BD90214843024940186030007F10BD00008A
:4061C0007C15002070B5054604464035A87F012811D1A1789020084A484380186030067F3046FEF7EFFD002805D10220A877A078314601F05FF970BD7C15002010B50C4CD1
:40620000A07A002813D0FEF789FE0A48027F417F408B00F0F7FB012809D10020A07200F0C1FF05498989090B01D000F03BFA10BD4C1600207C150020A0102E4070477047A2
:40624000490510B5490F0B00FCF7F0FA060704080C0C0F073E21FFF781FE10BD0821FFF7C3FE10BDFFF7D1FE10BDFFF7ADFE10BDF8B507460025002D01D0002600E0204EA5
:4062800000F03AFF3046403044890021418100F057FF304600F01BFB01282BD1A00702D52846FFF711FEE00602D52846FFF768FEA00601D5FEF732FE600601D500F054FBA4
:4062C000200602D5284600F01DF8600702D5284600F046FA380402D52846FFF713FB780402D52846FFF700FBE00703D021463046FFF7A6FF6D1C2D062D0EBCD0F8BD0000B1
:406300009C150020F8B5002801D0002400E0284C002C4BD025464035A878012846D1FF278820493700593E46002805D02149097B890601D5878AC68A2046FEF785FB012807
:4063400034D002F0E5FB2A8A6179FFF719F9009001F014F900983346283081B23A46204602F026F9E98AA07801F0D6FA12480188688A124E002810D048431149FCF702F835
:406380000004000C01D0401C80B27080A07DC107C90F002001F0A6FB01E000207080288A698A484381B2A07801F036FBF8BD00009C1500203015002060112E40420D002048
:4063C000710200000149096809680847840D002070B50D460026194A0146002801D0002401E014462034002C26D0204600F0A0FA01280AD19020484380186030007FFEF71D
:40640000E1FC002801D101F0C1FF0D48006881692046884700280CD020464030817EA94202D3491B817600E086762089294603F0BCF9204600F0F6FC70BD00007C15002042
:40644000840D002070B503460088FFF785FE040013D000F03CFA00280FD02079092819D02546997840352973204602F00FF80646A878012803D0AA8A02E0022070BDEA880A
:406480000A20424301212046FEF73EFE002E01D109202071002070BD0EB5002217216B460292198100905A810120029B00990BF007FF0EBDF8B518480024807A002822D19D
:4064C000164E0025B089000B22E0204600F008FF1249A039401807882A462146384600F091FA012810D00E480122478305770A4944778A72002D01D0002000E0203000283D
:4065000001D000F08FFCF8BDB089000B641CE4B20028DAD1F8BD00004C160020A0102E407C15002010B50088FFF716FE002809D0014640310C460978082905D00B2903D037
:406540000C2010BD022010BDFFF716FC002801D009202070002010BD70B503460088FFF7FBFD040008D0254640352878082805D00B2803D00C2070BD022070BD842000599C
:4065800010220830991CFBF73EFF2046FFF7C6FA2878082804D02046FFF778FC002801D00A202870204600F03DFC002070BD000010B50C46002121700088FFF7CDFD030052
:4065C0000BD000F084F9002807D00948F121007B0840C00603D4112010BD022010BD022020701A8A1889002103F05AF9002010BD30150020F8B50F46002100910088FFF7C2
:40660000ABFD040012D000F062F900280ED0E079410641D4617E02264A07002A08DB8907402500291ADA2843E07135E00220F8BD02F06AFA0021017021894180A189818029
:40664000217E4170E189C1803E7005460178134802F0F4FD284603F0C7F81DE0204600F06DF9012806D068460BF01CFD002803D00720F8BD2A20F8BDE07900992843E07151
:40668000204601F02DFF607E0421304360760448428B2046FEF738FD0020F8BD1D040000301500203EB500220F236C460292238100910190628169460EC900200BF000FE32
:4066C0003EBD0000F8B50F46054600F02BFB04002AD000F007F900282AD003202071254600264035EE76E6702046FFF79DF901F0FFF80920FEF778FCA07800F00FFE012115
:40670000204600F0A9FB2E706E70AE703A4600212046FFF7CBFC0F49887B401C8873A078FFF750FE022012E0284601F0A5F9F8BD002001F0A1F90848008B4007800F0128A8
:4067400002D1064801F01CF901F0DCF80120FEF74BFCF8BD7C15002000102E40700D002010B5002801D0002000E0094800280DD0014640310A464978022901D10021517093
:40678000807DC107C90F002001F0ACF910BD00009C15002070B503460D460088FFF7DCFC04000BD000F093F8002807D01248F121007B0840C00603D4112070BD022070BDFF
:4067C00020464030418A008A491C41430804C10C5888884201D2122070BD20822079072802D12046FFF7AAF8022028702089002103F07EF8002070BD30150020016A491C26
:40680000016204D1817E491C4906490E81767047C169491CC16104D1C17E491C4906490EC1767047F0B5074687B003A8009005A800260D460190002F01D0002400E01B4C24
:40684000002C05D06846FBF73DFE002803D00BE0022007B0F0BD68460089C00704D1902200212046FBF7D8FD114829460068826820469047050016D1A770667627462671C3
:4068800040373E70204600F019F8204601F032FA084820820848BE77007BF121084000D001202075E682E8B2D3E700009C150020840D0020B80B000030150020002101620D
:4068C0008176C161C17620300177417770470079002805D0012803D0022801D001207047002070470F49008908820E49603108880D4A801F904210D28888121F0A38904213
:406900000BD20889FF21F431884206D8074800890006C00E401F0C2801D300207047012070470000A0102E407B0C0000E0112E404030807F002800D001207047403000780F
:40694000002807D0012805D0052803D00E2801D0012070470020704710B5807801F04AF9002800D0012010BD10B500F01BFC03498989090B01D0FFF795FE10BDA0102E400A
:4069800070B5054604464035A87F002825D1FF206075A0789021154A484380186030417F9023491CC9B24177A0785843104B8018DB896030994201D300214177A07890219E
:4069C000484380186030467F0677A1783046FEF7F9F9002802D00120A87770BD0220A877A078314600F066FD70BD00007C150020681600200020401C0006000EFBD00020AB
:406A000070470000F0B516468207920F87B0000A02926A469080002E01D0002400E07F4C002C21D0084600F05BFC074668468088002810D00298032817D00020009068464A
:406A4000808821890491214620310391497F0546012964D067E07248381801882046FEF7D2FF304600F022FBD6E00020029002A80BF0F8FA002807D03D20005D0128F3D1E4
:406A80002046FFF7BBFEC7E00298009068468388202B14D31F2300213846009AFCF742FC684680881F3885B2012305AA00213846FCF738FC6D1E2D042D0CF5D104E00021BC
:406AC0003846009AFCF72EFC5548381801882046FEF799FF304600F0E9FA01AA21460098FEF764FD0028009805D00BF02BFB3D204C2108555EE0C677009869460078898887
:406B000001F046FD00280099204602D001F064FA82E001F076FB00980BF014FB7CE0042820D3281F80B23F49097B890605D5882109594989814202D314E01B2812D901234F
:406B400005AA00213846FCF7EDFB6D1E2D042D0CF5D10398407F012800D07CE72046FFF74DFE78E768460BF06DFA002802D0002007B0F0BD6846009D83882A1D00213846AB
:406B8000FCF7D0FB2648381801882046FEF73BFF304600F08BFA2046FFF799FE002805D026464036307E00281DD107E028460BF0BFFA31E02046FFF7D7F92DE002980128A4
:406BC00009D0022807D00398407F0128EED12046FFF714FEEAE7034601AA21462846FEF71DFD002805D028460BF0A2FA3D203073E0E70298FEF716FF0146049828700498DE
:406C00000901000A0843687068468088A870000AE8702846FFF740FC0120A9E79C15002000102E403015002010B5074A917B002901D0491E91730021FFF7F4FD002801D060
:406C4000002010BD012010BD7C150020F8B5074606464037B87F00282DD0B078902100904843234945186035287F0099FEF7BFF801281ED0287F401CC4B21E48C089A04210
:406C800000D800240020B877FF276F772F77A87702460146009800F07DFD717DFF2903D0304600F0E8FF777501F070FB0025114F19E00320B877F8BD00200090224669465D
:406CC0003046FEF763FE0099002904D0FF231A463046FEF7A4F8641CF889E4B2A04200D800246D1CEDB2F889A842E5D8F8BD00007C1500206816002010B502460021084B5F
:406D000003E0002901D0002000E018460479944204D0491C0906090EF3D0002010BD00009C15002000B50120FFF7E6FF00BD10B5044601F0E9FE2189018080346168416047
:406D400061682831816002F009FD10BDF7B50646087982B00C46092807D0A078F0770846FFF7E6FD012806D010E030460BF0FEF9022005B0F0BDA1789020294A4843801866
:406D80006030007FFEF71EF8012810D0A078FEF73DFD01280BD037780121304601F09EFA25462035062F38D00B2F0FD107E06846027C21463046FEF719FE0D20D9E720462F
:406DC000FDF742FE012801D1002028772046FFF7E5F9054604AA21463046FEF754FC01205F2108556946097C002001910090A07833463A46294600F007FB69460A7CA0781D
:406E00000323294600F04CFEA0782946FDF73EFC30460BF0ABF90020ABE70120D5E700007C15002010B502464032937F0021002B03D1927E002A00D00121064A927A002A16
:406E400000D000210279092A00D10121807800F069FE10BD4C16002070B50C460546FDF7F3FD00280BD1012C06D92879092806D02846FFF771FD0446002C02D004E0012461
:406E800002E0A87DC007FAD1A87DC107C90F204600F028FE70BD0000012807D0082804D104480282034808300180704701488038FAE70000A0102E400149088170470000B1
:406EC00000102E4010B50446FF20F130012C01D1FF20D530002200F057FE044A108A044980B2A0430880108210BD000000102E40460D0020034B198A034A89B2814311804B
:406F00001982704700102E40460D002010B50446012802D0082C07D102E0FF20D53001E0FF20F13000F028FE0348018A034A89B221431180018210BD00102E40460D002027
:406F4000034B198A034A89B2014311801982704700102E40460D0020F8B505460120A84086B214460F46012231467C2000F00CFE3A463146782000F007FE6078267800026C
:406F80000643E078A2780002024360792379000203430C2045430D2080010549281844182680001D44182280001D40180380F8BD00102E40401880B270470000CB065B0E5F
:406FC0000343480901021943D00108430121C902084301490881704780142E404278037812021343084A1382C37880781B021843908248780B78000203431383C878897816
:40700000000201439183704700142E40024A1080000C90801181704700142E40044A002180180288491C89B21029FAD37047000000102E40024A10820148803081817047FE
:40704000A0102E407047000010B5054A1082084600F0BEFD024A0021A03A8018018010BDA0102E4010B50B46044600F005F819462046FFF7DFFF10BD024A108201488030C7
:4070800001817047A0102E4010B504490882FF20002220211D3000F077FD10BDA0102E400149088070470000C0102E40000202494D3008807047000000102E400249888A14
:4070C0000422904388827047C0112E4010B5084B074C0202A03B0029208202D075321A8010BD04490020088088807632F7E70000A0102E40201A2E4000B503490888488000
:40710000FFF7F8FE00BD0000460D002010B50120FDF772FA01495020088010BD00102E4006490E220028888806D01043888003495120C039088070479043F7E7C0102E4094
:4071400000B502484088FFF7FBFE00BD460D002010B5FCF7E5FA10BD014952200880704700102E40884201D8081A03E00022D243101A401880B270470021017070470000B9
:407180000748808806492039098B884201D8081A03E00022D243101A401880B27047000020112E400148008AC0B27047A0102E4070B5084C049D20820748048905486030C4
:4071C00006880E8001891180808818806007400F287070BDA0102E40E0112E400148008970470000C0102E4000280FD00D4A108B0870000A4870908B8870000AC870094820
:40720000203000880871000A48717047064A10880870000A487090888870000AC8701089F0E7000040102E40C0112E4000B5024A00F004F800BD0000FF7F000000B513466C
